:100000000C9459040C94A0040C94A0040C94A00427
:100010000C94A0040C94A0040C94A0040C94A004D0
:100020000C94A0040C94A0040C94CD1F0C94A0205C
:100030000C9485160C94A0040C94A0040C94A004B9
:100040000C94A0040C94A0040C94A0040C94A004A0
:100050000C94A0040C94ED160C94A0040C94A00431
:100060000C94A0040C94A0040C94A0040C94A00480
:100070000C94A0040C94A0040C94A0040C94A00470
:100080000C94A0040C94A0040C94A0040C94A00460
:100090000C94A0040C94A0040C94A0040C94A00450
:1000A0000C94A0040C94A0040C94A004011302135B
:1000B000011502150104020401160216010B020BC0
:1000C00001040204011102110117021701130213A6
:1000D00001040204011A021A0104020401E1011FD1
:1000E000021F010A020A0110021001040204010C9D
:1000F000020C010F020F013702370106020601123E
:1001000002120110021000290014001A0008001544
:100110000017001C0018000C00120013002A002B0E
:100120006104001600070009000A000B000D000E14
:10013000000F00330028003C701D001B0006001952
:10014000000500110010003600370038003D70E057
:1001500000E300E200045101512C432C43025105FD
:100160005106510751085135021E021F022002217B
:10017000022202230224022502260227024C004CFE
:10018000003A003B003C003D003E003F002D022EA7
:10019000022F0230020100010040004100420043F2
:1001A0000044004500320264024A004D0031020161
:1001B000000100010001000100010001000100AB8D
:1001C00000AA00A900AE0035001E001F002000217B
:1001D0000022002300240025002600270001004CF7
:1001E000003A003B003C003D003E003F002D002E49
:1001F000002F003000010001004000410042004398
:100200000044004500320064004B004E0031000104
:10021000000100010001000100010001000100AB2C
:1002200000AA00A900AE0001001E001F002000214E
:1002300000220023002400250026002700010001E1
:100240000000300100010001000100500051005287
:10025000004F000100010001000100010001000148
:10026000000100010001003600010001003400011E
:100270000001000100010001000100010001000176
:100280000001000100010001000100010001000166
:100290000001000100010001000100010001000156
:1002A0000001000100010001000100010001000146
:100700000001000100010012036B00650079006226
:10071000006F006100720064000000160371006D3C
:10072000006B006200750069006C00640065007277
:100730000000000403090409026D00040100A0FA8E
:100740000904000001030101000921110100012237
:1007500040000705810308000A09040100010301A4
:100760000200092111010001224D00070582030842
:10077000000A090402000103000000092111010020
:10078000012236000705830308000A09040300015B
:10079000030000000921110100012239000705842E
:1007A000032000011201100100000008EDFE60604E
:1007B00001000102000105010906A101050719E078
:1007C00029E7150025019508750181020508190121
:1007D000290595057501910295017503910105079C
:1007E000190029F71500250195F875018102C0054A
:1007F000010980A10185021601002603001A81006B
:100800002A8300751095018100C0050C0901A10122
:100810008503160100269C021A01002A9C0275100D
:1008200095018100C005010902A1010901A100058E
:100830000919012905150025019505750181029504
:1008400001750381010501093009311581257F9565
:10085000027508810609381581257F950175088183
:1008600006050C0A38021581257F95017508810659
:10087000C0C005010906A101050719E029E7150017
:10088000250195087501810295017508810105080A
:1008900019012905950575019102950175039101CD
:1008A0000507190029FF150026FF00950675088128
:1008B00000C011241FBECFEFDAE0DEBFCDBF04B60B
:1008C00003FE27C08091310290913202A091330241
:1008D000B09134028730904BA740B04BD1F41092C6
:1008E000310210923202109233021092340214BE7E
:1008F00084B7877F84BF0FB6F894A8958091600075
:10090000886180936000109260000FBEE0E0F8E321
:10091000099511E0A0E0B1E0EEECF7E402C005902B
:100920000D92A833B107D9F722E0A8E3B1E001C0E6
:100930001D92A133B207E1F70E941F1D0C94E5231D
:100940000C940000611107C0FC018281882319F01A
:100950008CEA90E0089580E090E00895089508956D
:1009600081E00895089581E008950C94B0040E94F8
:10097000D80E2FEF84E39CE0215080409040E1F7B7
:1009800000C000000C941217FF920F931F93CF9397
:10099000DF938C01FC01C081D18180916C018111B8
:1009A00027C082818823F9F0CE010E945414F82ECA
:1009B000682FCE010E94FF13BE018F2D0E942B06CF
:1009C000EC01B8010E94B504882331F0B801CE01D2
:1009D0000E945C088111C2C080E0DF91CF911F911D
:1009E0000F91FF900895CE010E942914F82EE4CFB4
:1009F000CE010E945414BE01E1CFF8018281882308
:100A000059F30E94B704E8CFF8018281882321F3CB
:100A10008091F00181608093F001DECFF801828146
:100A2000882309F4B2C00E940716811102C00E94F7
:100A3000E8150E94241690E09093220280932102F0
:100A4000FE01E350F047E231F105C0F4E45DFA4FF6
:100A5000809121020C9495234A054C0557054E05BB
:100A6000500552055405560559055B055D05680599
:100A70005F0561056305650567056A0580912102CB
:100A8000816080932102809121020E9428160E9499
:100A9000D80EA2CF8260F5CF8460F3CF8061F1CF12
:100AA0008062EFCF8064EDCF8068EBCF8460886098
:100AB000E8CF8E7FE6CF8D7FE4CF8B7FE2CF8F7E36
:100AC000E0CF8F7DDECF8F7BDCCF8F77DACF8B7F50
:100AD000877FD7CF87FB992790F921E0922790FB5A
:100AE00087F9CFCFF8018281882361F010923A0113
:100AF0000E94B716909339018093380182E00E94DA
:100B0000420C6ACF80913A0181110FC08091380167
:100B1000909139010E94C316883C910530F486E219
:100B20000E94170B86E20E94F30B82E00E94490CA0
:100B300053CF80913B0181110FC08091380190917A
:100B400039010E94C316883C910530F487E20E9467
:100B5000170B87E20E94F30B80E2E8CFC531F0E784
:100B6000DF07D8F4C23080E7D80708F057CFC115A7
:100B7000E0E7DE0709F441CFC130D04709F444CFA4
:100B800081E080933A0180933B01C801DF91CF91CE
:100B90001F910F91FF900C94B304CC3380E7D807DA
:100BA00009F4A0CFCD33D04759F7F80182818823CB
:100BB00009F4BFCF10923B010E94B7169093390100
:100BC0008093380180E29BCF0C94AD08279A2F9830
:100BD0008FEF9FEF90938700809386008AE0809349
:100BE000800089E1809381000C94CE1A0E94E60572
:100BF0000C94AB08282F2F9880918000211108C0F9
:100C0000877F8093800010928D0010928C00089551
:100C1000886080938000233039F48FEF9FEF9093AA
:100C20008D0080938C00089583E090E0821B9109F1
:100C3000880F991F2FEF3FEF02C0369527958A95B1
:100C4000E2F730938D0020938C0008950C94B20449
:100C50000C9426060895972F70E02CE0929F600D6B
:100C6000711D1124FB0190E3899FE00DF11D1124FA
:100C7000EE0FFF1FE95FFE4F859194910895FC01EF
:100C8000EE0FFF1FE95FF84F8591949108950E9440
:100C90002B060E94DA07811520E5920708F040C074
:100CA000811530E4930708F0F9C0883E910518F5E6
:100CB000803E910508F07DC1883A910580F4853A1F
:100CC000910508F086C08130910509F472C120F0C9
:100CD0008430910508F06DC180E090E008958D3B6F
:100CE000910508F481C0803C9105B0F3805C9109C6
:100CF0000E943F060895811540E2940750F4811543
:100D000021E0920708F055C1803F910528F39065D6
:100D10000895811530E3930708F0BDC09F70E8CFB8
:100D2000811545E5940760F5811524E5920708F0E3
:100D3000E4C0811532E5930750F4811541E594072D
:100D400008F4AFC0982F8827816F906A0895282FE4
:100D500026952695AC01437055278115934508F0DB
:100D6000BDC081E090E002C0880F991F4A95E2F76C
:100D700040E2249F90011124822B932B9C680895BC
:100D8000803340E7940790F4803220E7920708F020
:100D9000BFC0811536E5930708F4B4C09C013056F6
:100DA0002115304108F098CF9F70B0C0813320E703
:100DB000920709F4B4C008F4AFC0823340E7940747
:100DC00009F4B0C08333904709F086CF80E093EDFB
:100DD0000895853A910509F4A8C0863A910509F06D
:100DE000A7C082E890E40895883A910509F4A3C069
:100DF000893A910509F4A2C08A3A910509F4A1C083
:100E00008B3A910509F4A0C08C3A910509F49FC072
:100E10008B3B910509F49EC08C3B910509F49DC064
:100E20008D3A910509F49CC0803B910509F49BC063
:100E30008E3A910509F49AC08F3A910509F499C048
:100E4000813B910509F498C0823B910509F497C054
:100E5000833B910509F496C0843B910509F495C044
:100E6000853B910509F494C0863B910509F493C034
:100E7000873B910509F492C0883B910509F491C024
:100E8000893B910509F490C08A3B910509F48FC014
:100E900080E094E408959927906C08959F70906A7B
:100EA00008959C0154E0369527955A95E1F7922FC5
:100EB0009370482F437021E030E002C0220F331FAF
:100EC0004A95E2F73C68392B86958695837040E217
:100ED000849FC0011124822B932B089581E090E020
:100EE00002C0880F991F4A95E2F740E2249F9001C3
:100EF0001124822B932B9A680895982F8827846F4A
:100F0000906A0895982F882788279F719062089586
:100F100080529047946D089580E091ED089580E0AF
:100F200090ED089580E092ED089581E890E40895B1
:100F300083E890E4089582EE94E4089589EE94E4C1
:100F400008958AEE94E4089585EB94E4089586EB81
:100F500094E4089583EB94E4089584EB94E4089575
:100F600087EB94E408958CEC94E408958DEC94E47C
:100F7000089583E895E408958AE895E4089582E960
:100F800095E4089584E995E4089581E296E408954E
:100F900083E296E4089584E296E4089585E296E477
:100FA000089586E296E4089587E296E408958AE239
:100FB00096E408958238910549F1B0F481339105A2
:100FC00009F45AC048F48932910509F450C08A32B4
:100FD000910509F456C008958533910509F442C07E
:100FE0008933910599F00895833E910521F138F4F4
:100FF000803E910581F0823E9105A1F00895863EE4
:10100000910501F1873E910531F10895209121026A
:101010002370E1F508952091210220FF12C089E399
:1010200090E008952091210222FF0BC024FF31C0DF
:1010300080E090E008952091210222FD2DC024FD42
:10104000F7CF08952091210223FFFBCF24FDF0CF9D
:1010500087EE90E008952091210223FFF0CF86EEE5
:1010600090E008952091210225FD19C00895209156
:10107000210225FD17C008952091210226FD15C0EB
:1010800008952091210226FD13C0089580EE90E07E
:10109000089583EE90E0089582EE90E0089589E24D
:1010A00090E0089585E390E008958AE290E0089545
:1010B00081E390E0C6CF08950F931F93CF938C01E7
:1010C000FB018281811106C0C1E08C2FCF911F915D
:1010D0000F910895C0914901C11125C005311047F4
:1010E00099F70E945B0881E0809349010E94B7163E
:1010F000909348018093470110923C0110923E0169
:1011000010923D011092400110923F011092420155
:101110001092410110924401109243011092460135
:1011200010924501D2CF80914701909148010E94D1
:10113000C316883C910540F680913C01E82FF0E011
:10114000EE0FFF1FE35CFE4F118300838F5F8093E0
:101150003C01C0E0BACF0C94AE040C94AF0485B748
:10116000806885BF85B7806885BFAFE1B1E061E089
:1011700070E08D91E82FE295EF70F0E041A18F7063
:101180009B0101C0220F8A95EAF7922F9095942334
:1011900091A382A1822B82A381E0A332B80749F7F1
:1011A000A3E1B1E061E070E08D91E82FE295EF708E
:1011B000F0E041A18F709B0101C0220F8A95EAF7F0
:1011C000922F9095942391A382A1822B82A381E0F8
:1011D000AF31B80749F710925301109252011092A3
:1011E0004B0110924A011092550110925401109235
:1011F0004D0110924C01109257011092560110921D
:101200004F0110924E011092590110925801109204
:101210005101109250010C94F6056F927F929F92AB
:10122000AF92BF92CF92DF92EF92FF920F931F93F4
:10123000CF93DF93CAE4D1E09FE1E92E91E0F92E4C
:1012400001E010E0BB24B394C880D98019821882D1
:10125000D7018D917D01E82FE295EF70F0E091A12B
:101260008F70980101C0220F8A95EAF7892F822B8F
:1012700081A382A1A22EA0948A2182A3B0EABA956A
:10128000F1F783E1682E81E0782E80E090E0D301D1
:101290007D913D01472F42954F7050E0DA019096C5
:1012A0009C90488159817F70D80102C0AA0FBB1F52
:1012B0007A95E2F7BD01692109F067C0B801082EEF
:1012C00002C0660F771F0A94E2F7462B572B59830B
:1012D000488301968C309105D1F681A18A2181A3A2
:1012E00082A1282B22A388819981C816D90641F0B2
:1012F000B0925A010E94B71690935C0180935B01F3
:101300002296B1E0C235DB0709F09ECF80915A01E9
:10131000882351F180915B0190915C010E94C3167A
:10132000069710F180914A0190914B0190935301DF
:101330008093520180914C0190914D019093550101
:101340008093540180914E0190914F0190935701E9
:1013500080935601809150019091510190935901D1
:101360008093580110925A010E94E40581E0DF91B8
:10137000CF911F910F91FF90EF90DF90CF90BF9092
:10138000AF909F907F906F90089560E070E09DCF48
:10139000E82FF0E0EE0FFF1FEE5AFE4F80819181A3
:1013A0000895089590936201809361010895E091FA
:1013B0006101F0916201309721F00190F081E02D00
:1013C000099480E00895E0916101F0916201309705
:1013D00021F00280F381E02D09940895E0916101EC
:1013E000F0916201309721F00480F581E02D09949D
:1013F000089520915F01309160012817390771F03D
:101400009093600180935F01E0916101F09162012E
:10141000309721F00680F781E02D099408952091FE
:101420005D0130915E012817390771F090935E01DC
:1014300080935D01E0916101F0916201309721F0AC
:101440000084F185E02D0994089508950C94250AEF
:101450000E94AE160E94AF080E947F170C94CE1A0D
:101460005F926F927F928F929F92AF92BF92CF9234
:10147000DF92EF92FF920F931F93CF93DF93CDB73D
:10148000DEB72A970FB6F894DEBF0FBECDBF0E941D
:101490000D0994E6A92E91E0B92E00E010E0882411
:1014A0008394912C502E802F0E94C8097C01F50155
:1014B000C190D1905F018C159D05B1F40F5F1F4F56
:1014C0000430110579F78FEF89838A831B820E948C
:1014D000B7168160782F9D838C8349815A816B81F7
:1014E0008D810E94E90A36C08091F00181FD0E9441
:1014F000D10980E090E0CE24DF243401082E02C020
:10150000660C771C0A94E2F7960126213721232BDB
:1015100009F443C08E835F82E620F72081E0EF2844
:1015200009F480E088870E94B7168160782F9A8737
:1015300089874E815F8168858A850E94E90A000F4C
:10154000111FF801EC59FE4F8081918168267926A0
:10155000718260820E941F1A0E94D70990916301D4
:10156000891709F10E94D709809363012A960FB663
:10157000F894DEBF0FBECDBFDF91CF911F910F91C9
:10158000FF90EF90DF90CF90BF90AF909F908F90A3
:101590007F906F905F900C94280601968C30910597
:1015A00009F0ABCF8BCF2A960FB6F894DEBF0FBEF3
:1015B000CDBFDF91CF911F910F91FF90EF90DF9002
:1015C000CF90BF90AF909F908F907F906F905F90E3
:1015D0000895CF93DF93CDB7DEB72B970FB6F8946E
:1015E000DEBF0FBECDBF4F83588769877A878B8751
:1015F000DE01119686E0FD0111928A95E9F785E0FA
:10160000FE01379601900D928A95E1F749815A8142
:101610006B817C818D819E810E94A1112B960FB6DA
:10162000F894DEBF0FBECDBFDF91CF910895882320
:1016300009F4D8C0823871F40E94D70981FDD2C064
:1016400089E30E94F5140E94B91589E30E943115BF
:101650000C94B915833859F40E94D70980FDC2C093
:1016600083E50E94F5140E94B91583E5EFCF843815
:1016700059F40E94D70982FDB5C087E40E94F51491
:101680000E94B91587E4E2CF9CEF980F913A18F4C5
:101690000E94F514DDCF90E2980F983050F48770D7
:1016A00091E001C0990F8A95EAF7892F0E94701581
:1016B000CFCF9BE5980F933070F4853A31F0863A9E
:1016C00039F083E890E00C94F90981E890E0FBCFD1
:1016D00082E890E0F8CF98E5980F953108F082C045
:1016E000883A09F440C0893A09F440C08A3A09F4BA
:1016F00040C08B3A09F440C08C3A09F440C08B3B9F
:1017000009F440C08C3B09F440C08D3A09F440C054
:10171000803B09F440C08E3A09F440C08F3A09F486
:1017200040C0813B09F440C0823B09F440C0833B88
:1017300009F440C0843B09F440C0853B09F440C033
:10174000863B09F440C0873B09F440C0883B09F45C
:1017500040C0893B09F440C08A3B09F440C080E0A6
:1017600090E00C940F0A82EE90E0FBCF89EE90E0BF
:10177000F8CF8AEE90E0F5CF85EB90E0F2CF86EBE4
:1017800090E0EFCF83EB90E0ECCF84EB90E0E9CFFB
:1017900087EB90E0E6CF8CEC90E0E3CF8DEC90E02F
:1017A000E0CF83E891E0DDCF8AE891E0DACF82E90B
:1017B00091E0D7CF84E991E0D4CF81E292E0D1CF1C
:1017C00083E292E0CECF84E292E0CBCF85E292E05A
:1017D000C8CF86E292E0C5CF87E292E0C2CF8AE22C
:1017E00092E0BFCF0895882309F44BC0823871F48A
:1017F0000E94D70981FF45C089E30E94F5140E9429
:10180000B91589E30E9431150C94B915833859F440
:101810000E94D70980FF35C083E50E94F5140E941D
:10182000B91583E5EFCF843859F40E94D70982FFB8
:1018300028C087E40E94F5140E94B91587E4E2CF1E
:101840009CEF980F913AF0F290E2980F983050F494
:10185000877091E001C0990F8A95EAF7892F0E945D
:101860007615D2CF9BE5980F933020F480E090E07E
:101870000C94F909885A853120F480E090E00C94AA
:101880000F0A0895882321F00E9470150C94B91551
:101890000895882321F00E9476150C94B9150895B7
:1018A0008F929F92AF92BF92DF92EF92FF920F932F
:1018B0001F93CF93DF937C01D62FC72FFC010581A7
:1018C00002950F70128111110E948F150E94EE1463
:1018D000D82E882371F0112331F180E28D0F8830EA
:1018E00010F182E00E94D7140E94EE1491E0D82EED
:1018F000D926EC2FE295EF708E2F90E0FC01ED578A
:10190000F34F0C949523950C950CE60CE60C250DE5
:10191000430DC30CC30C4E0DC30CE90DE90D5B0E5A
:10192000640EC30C840ED12CE4CF8C2F807FCF703B
:10193000882311F0C295C07F1123A9F0CC2359F060
:1019400080E28D0F883010F0D11109C08C2F0E94D9
:1019500070150E94B9158D2F0E94170B14C08C2F83
:101960000E948115F6CF8D2F0E94F30BCC2359F0E6
:1019700080E28D0F883010F0D11124C08C2F0E948E
:1019800076150E94B915DD2009F4C5C10E94CA145C
:1019900080FDC1C1F70112820E94C4140E9443134A
:1019A000C7010E94970E0E94C414DF91CF911F912E
:1019B0000F91FF90EF90DF90BF90AF909F908F902E
:1019C0000C9464138C2F0E948715DBCF8C2F807FA3
:1019D000CF70803211F0C295C07FDD2369F0D13025
:1019E00021F1112361F1002359F0F701858180FF76
:1019F000B2CF8F70858304C0112361F0011104C040
:101A00008C2F0E94420CBFCF8C2F0130D1F70E9447
:101A1000A315B9CF011106C00E94A6158C2F0E94F4
:101A2000490CB1CF0130C1F7AECF112321F0063000
:101A300008F0A9CFE5CF053008F0A5CFEFCF002300
:101A400069F38D2F0E94F30B9ECF8C2F8695869580
:101A5000837059F0813009F096CF112389F08D2FD2
:101A60009C2F93700E940F0A8ECF112331F08D2F7F
:101A70009C2F93700E94F90986CF80E090E0FACF06
:101A800080E090E0EFCF8D2F112329F00E942819DC
:101A90000E94141A78CF0E949019FACF8C2F83706D
:101AA00009F048C011116FCF2D2F22952695277070
:101AB000220F220F6D2F6F70862E912CA12CB12C2E
:101AC000022E04C0880C991CAA1CBB1C0A94D2F7D5
:101AD000D4FF1EC06FE070E080E090E004C0660FAD
:101AE000771F881F991F2A95D2F76095709580956A
:101AF0009095C695C695C370C23071F0A0F4682960
:101B000079298A299B29C13091F00E94EC123BCFA0
:101B100060E070E0CB01EDCF682979298A299B2903
:101B20000E94081330CF0E94EC12C501B4010E943C
:101B3000D01229CF1123C9F18C2F8170882309F489
:101B400022CF2D2F229526952770220F220F6D2F41
:101B50006F70862E912CA12CB12C022E04C0880C03
:101B6000991CAA1CBB1C0A94D2F7D4FF20C06FE0BA
:101B700070E080E090E004C0660F771F881F991F17
:101B80002A95D2F76095709580959095C695C695E3
:101B9000C370C23081F0B0F4682979298A299B2961
:101BA000C130A1F00E94C613EECE8695C7CF60E08B
:101BB00070E0CB01EBCF682979298A299B290E9403
:101BC000E213E1CE0E94C613C501B4010E94AA131C
:101BD000DACE8D2F90E0FC01E05EF109E531F105F0
:101BE00008F061C0EA50F24F0C9495230B0E0B0ED7
:101BF0000B0E0B0E0B0E0B0E0B0E0B0E0B0E0B0E1D
:101C00000B0E0B0E0B0E0B0E0B0E0B0E180E260EE4
:101C10002D0E340E3E0EDF708C2F8F71112321F0AC
:101C20000E9443138D2FEDCE0E9464138D2FF7CEAB
:101C3000112341F0053008F0A6CE8C2F8F710E9441
:101C40008913A1CE063008F09ECEF7CF112339F0CC
:101C50008C2F8F710E94431396CE1123C9F38C2FC2
:101C60008F710E9464138FCE112329F08C2F8F71F6
:101C70000E942E1388CE0E94241385CE112349F092
:101C8000CF718C2F0E94431363E08C2F0E94CE14DF
:101C90007ACE81E00E94D714023008F474CE82E03C
:101CA0000E94D71470CE112319F0002389F253CE6D
:101CB0000023A9F2C6CE4C2F4F706D2FC7010E9492
:101CC000A2040E944A125FCE11115DCECF70C230C5
:101CD000A9F040F4CC2379F0C13009F054CE0E9431
:101CE000FA1A51CEC33069F0C43009F04CCE8D2FB2
:101CF0000E944C1B48CE0E94DF1A45CE0E94161B44
:101D000042CE0E94291B3FCE4C2F4F706D2FC70132
:101D10000E942A0638CEDF91CF911F910F91FF903C
:101D2000EF90DF90BF90AF909F908F9008950F93AA
:101D30001F93CF93DF93EC01988189812B813C81A4
:101D4000232B39F08F3F19F481E09F3F19F080E099
:101D500001C081E080FD13C0CE010E94C40488232D
:101D600071F0688179818A810E94A1148C010E949E
:101D7000FE130E94C512B801CE010E94500CDF91E3
:101D8000CF911F910F9108950E948F150E94A01569
:101D90000E9462150E94B9150E94C21A0E94141A6C
:101DA00080E090E00E94F90980E090E00C940F0A36
:101DB0000E947E150C94C40E0E949614E92FE295A1
:101DC000EF704E2F50E0FA013297EE30F105D8F463
:101DD000E451F14F0C949523FA0EFA0E030F030F02
:101DE000050F030F030F030FFA0EFA0E0A0F030F6E
:101DF000030F0A0F803F19F020F4803E20F481E0A9
:101E00000895843FE1F380E00895803EC0F3813F70
:101E1000D1F7F5CF93FB882780F90895CF93DF930F
:101E200000D000D01F92CDB7DEB70F900F900F906B
:101E30000F900F90DF91CF910895CF93DF9300D053
:101E400000D000D0CDB7DEB726960FB6F894DEBF2F
:101E50000FBECDBFDF91CF9108951F93CF93DF9336
:101E6000C0916D0116E080916E01C81304C0DF912E
:101E7000CF911F910895D0E01C9FF0011D9FF00DA0
:101E80001124E159FE4F4081518162817381848127
:101E900095810E941D0F2196C770E5CF40919F014B
:101EA0005091A0016091A1017091A2018091A301C4
:101EB0009091A4010C941D0F1F93CF93DF938091F9
:101EC000A40182958F70D1F48091A1018823B1F093
:101ED00080916D01D0916E01B0919F01C091A001E0
:101EE0004091A2015091A301A1E0BF3F09F0A0E001
:101EF000BA016095709516E08D1304C0DF91CF9103
:101F00001F91089541155105D9F1CF3FD9F120E036
:101F100090E020FD3CC0189FF001199FF00D1124A6
:101F2000E159FE4F21812C1332C020812B132FC089
:101F3000228121112CC0238134812417350720F1FF
:101F4000241B350B283C310510F52091A4012F707E
:101F500020612093A40126E0289FF001299FF00D25
:101F60001124EC58FE4F80818F70806180838FE94F
:101F700091E00E94970EDF91CF911F910C942D0F4D
:101F800021E0C6CF2A2FC4CF260F371FDBCF019603
:101F90008770B2CFAF92BF92CF92DF92EF92FF9253
:101FA0000F931F93CF93DF93CDB7DEB761970FB633
:101FB000F894DEBF0FBECDBF8C0185E0F801DE01D5
:101FC0001D9601900D928A95E1F7D8014C911196DA
:101FD0005C9111971296EC9030919F016091A00155
:101FE0008091A2019091A301009739F06F3F19F4FD
:101FF00021E03F3F19F020E001C021E0B22FB17095
:10200000BB2E20FD90C1F801C380D480A090A10117
:10201000AA2009F432C12091A401C816D90610F1F2
:10202000D601A81BB90BCD01FF24F394883C910580
:10203000F0F0F12C207F09F0E9C07C2DD98AC88A04
:102040006E2D89890E940E0F8FE991E00E94970EF4
:10205000EFE9F1E086E0DF011D928A95E9F70E9441
:102060004E0F1EC0809590958C0D9D1DDDCF822F4B
:10207000807F09F084C0651325C0341323C0FE2C73
:10208000E11020C02F7020612093A4010E944E0F08
:102090008FE991E00E94970E8091A401F801858359
:1020A0008F2D61960FB6F894DEBF0FBECDBFDF91C6
:1020B000CF911F910F91FF90EF90DF90CF90BF9045
:1020C000AF900895CD2839F05F3F19F481E04F3F7C
:1020D00019F080E001C081E080FD24C081E08E2500
:1020E000F82FF170FF2E80FF3FC080916D0120918D
:1020F0006E0136E0821318C04D875E878D859E8500
:102100000E949614292F22952F70223008F1243036
:1021100030F59F7009F1D80115969C91907FE1F4FC
:10212000FB2CBECF80E0DCCF90E0389FF001399FE0
:10213000F00D1124E159FE4F6181561306C06081F4
:10214000641303C06281E6120FC001968770D2CF7C
:102150009F7011F0882321F3805E883008F3C80156
:102160000E94970EBF2CDCCFFE2CEE2009F498CFF6
:102170008091A40181608093A401F12C91CF65131B
:1021800014C0341312C0E11010C08091A401F801F2
:102190008583C8010E94970E86E0F801AFE9B1E09F
:1021A00001900D928A95E1F75ACF4D875E878D8514
:1021B0009E850E94DC0E882309F4BFC0EE2009F43E
:1021C000BCC02091A401822F82958F7090E002976D
:1021D00074F080919F019091A00198878F83198658
:1021E000DB86CA862C87CE0107960E94970E86E072
:1021F000F801AFE9B1E001900D928A95E1F70E94F4
:102200005C0F0E944E0FFF24F3944ACF651314C055
:10221000341312C0E11010C08091A401F80185832D
:10222000C8010E94970E86E0EFE9F1E0DF011D9200
:102230008A95E9F7FA2C34CF4D875E878D859E8588
:102240000E94DC0E882309F478C0EE2009F475C0E2
:102250002091A401822F82958F7090E002973CF22A
:1022600080919F019091A0019A8389831B82DD82D6
:10227000CC822E83CE010196B8CFC816D90680F045
:10228000F601E81BF90BCF01883C910570F0F12CA9
:102290007C2DD98AC88A6E2D89890E940E0FD8CECE
:1022A000809590958C0D9D1DEFCFFE2CEE2009F4AE
:1022B00044C0651327C0341325C08091A40180FD5C
:1022C00018C0982F92959F70292F30E02115310565
:1022D00081F0D80115968C9315972F30310509F4AC
:1022E00058CF9F5F9295907F8F70892B15968C9316
:1022F00050CF86E0F801AFE9B1E001900D928A95E8
:10230000E1F7CECE4D875E878D859E850E94DC0EDF
:1023100081116DCF8091A40181608093A401C801D7
:102320000E94970EBDCEEE2041F04D875E878D85D1
:102330009E850E94DC0E81115ACFC8010E94970E23
:1023400062CF1F93CF93DF93CDB7DEB72C970FB635
:10235000F894DEBF0FBECDBF4F83588769877A8759
:102360008B879C87CE0107960E94CA0F882349F16C
:102370009F8188852A853B85232B39F08F3F19F46F
:1023800081E09F3F19F080E001C081E080FD08C03E
:102390004F81588569857A858B859C850E941D0FA4
:1023A00016E080916D0190916E01891343C02C96C7
:1023B0000FB6F894DEBF0FBECDBFDF91CF911F9156
:1023C000089586E0FE013796DE01119601900D9288
:1023D0008A95E1F79F8188852A853B85232B39F0F3
:1023E0008F3F19F481E09F3F19F080E001C081E048
:1023F00080FDD6CF20916E0130E0C9010196877033
:10240000992740916D0150E084179507A9F196E056
:10241000929FD001939FB00D1124A159BE4FFE0190
:10242000319601900D929A95E1F780936E010E948A
:102430002D0FB6CF819FC001112481599E4F0E945C
:10244000CA0F882309F4B3CFE0916D011E9FF001FC
:102450001124E159FE4F4081518162817381848151
:1024600095810E941D0F80916D0190E0019687700B
:10247000992780936D0195CF0E94D80E10926E011E
:1024800010926D01EFE9F1E086E0DF011D928A957F
:10249000E9F78DCFEF92FF920F931F93CF93DF93C6
:1024A0008C01892B81F0F12CEE24E394E801219634
:1024B000F8018491843770F4843008F062C0813070
:1024C000B1F08230B1F1DF91CF911F910F91FF9068
:1024D000EF900895853709F44FC008F43FC09CE79A
:1024E000980F903780F78F770E94F30B4CC00E5FE8
:1024F0001F4FFE01849190E2980F983060F487702E
:10250000FE2D01C0FF0F8A95EAF78F2F0E949215CA
:102510000E94B91502C00E94170B8F2D882309F461
:10252000C5CFEFE9FFE03197F1F700C0000081501F
:10253000F5CF0E5F1F4FFE01849190E2980F983007
:1025400050F48770FE2D01C0FF0F8A95EAF78F2F98
:102550000E949815DDCF0E94F30BDFCF0E5F1F4F57
:10256000FE01C491CC23C9F28FE99FE00197F1F7F6
:1025700000C00000C150F6CF0E5F1F4FFE01F49067
:10258000CCCF0E94170B8E01C8CF08956093C7016E
:102590007093C8018093C9019093CA010C94C40E32
:1025A0000F931F930091C7011091C8012091C90199
:1025B0003091CA01DC01CB01802B912BA22BB32BD4
:1025C0008093C7019093C801A093C901B093CA0139
:1025D0001F910F910C94C40E0F931F930091C7018C
:1025E0001091C8012091C9013091CA01DC01CB01D1
:1025F00080239123A223B3238093C7019093C80122
:10260000A093C901B093CA011F910F910C94C40EFD
:102610000F931F930091C7011091C8012091C90128
:102620003091CA01DC01CB0180279127A227B32773
:102630008093C7019093C801A093C901B093CA01C8
:102640001F910F910C94C40E1092C3011092C401FB
:102650001092C5011092C6010C94C40E41E050E0E6
:1026600060E070E004C0440F551F661F771F8A9515
:10267000D2F74093C3015093C4016093C501709396
:10268000C6010C94C40E41E050E060E070E004C06C
:10269000440F551F661F771F8A95D2F78091C3019B
:1026A0009091C401A091C501B091C601842B952BD6
:1026B000A62BB72B8093C3019093C401A093C501AF
:1026C000B093C6010C94C40E41E050E060E070E0AD
:1026D00004C0440F551F661F771F8A95D2F7409597
:1026E0005095609570958091C3019091C401A0911F
:1026F000C501B091C60184239523A623B7238093F7
:10270000C3019093C401A093C501B093C6010C947A
:10271000C40E41E050E060E070E004C0440F551F7B
:10272000661F771F8A95D2F78091C3019091C401EB
:10273000A091C501B091C60184279527A627B72788
:102740008093C3019093C401A093C501B093C601C7
:102750000C94C40E0F931F930091C3011091C401F8
:102760002091C5013091C601DC01CB01802B912B5A
:10277000A22BB32B8093C3019093C401A093C501F6
:10278000B093C6011F910F910C94C40E0F931F9329
:102790000091C3011091C4012091C5013091C6017F
:1027A000DC01CB0180239123A223B3238093C301B7
:1027B0009093C401A093C501B093C6011F910F91DE
:1027C0000C94C40E0F931F930091C3011091C40188
:1027D0002091C5013091C601DC01CB0180279127F2
:1027E000A227B3278093C3019093C401A093C5018E
:1027F000B093C6011F910F910C94C40E08952CE064
:10280000929F800D1124982F977041E001C0440FD2
:102810009A95EAF786958695869595E0899FF001C9
:102820001124EB55FE4F80E090E070E050819B0159
:10283000082E02C0369527950A94E2F7217021955B
:10284000252724232527219301968530910571F7AB
:1028500008952CE0929F800D1124982F97708695F3
:102860008695869525E0829FA001112460E070E0A6
:1028700080E0FA01E60FF71FEB55FE4F208130E0B4
:10288000092E02C0369527950A94E2F72170332766
:10289000062E01C0220F0A94EAF7822B6F5F7F4F4A
:1028A0006530710531F70895BF92CF92DF92EF92B4
:1028B000FF920F931F93CF93DF938C01C090C301BE
:1028C000D090C401E090C501F090C6018091C7018D
:1028D0009091C801A091C901B091CA01C82AD92A12
:1028E000EA2AFB2ACFE1D0E0BC2ED701C6010C2E8C
:1028F00004C0B695A795979587950A94D2F780FD61
:102900000EC0219788F7B12C8B2DDF91CF911F91AD
:102910000F91FF90EF90DF90CF90BF900895B80196
:102920008C2F0E944706019761F3EECFCF93DF9380
:10293000EC010E945414BE010E944706DF91CF9122
:1029400008951F93CF93DF93EB0190916C0199232E
:1029500039F0CB010E949614DF91CF911F91089519
:10296000882369F0CB010E945414182F682FCE01E0
:102970000E94FF13BE01812F0E944706EDCFCB01BD
:102980000E942914182FF6CF8091CB01859585954B
:10299000859508958091CB018770089598E0899F6F
:1029A00090011124622B6093CB010C94431320916E
:1029B000CB01809582238093CB01982F977069F487
:1029C00030E0482F082E000C550B2417350729F04E
:1029D0008595859585950C94641308959091CB0108
:1029E000977081E009F480E0089590911201992395
:1029F000D9F09091210297FF17C0982F9695969540
:102A000096959F3131F1E0910001F0910101E90FBC
:102A1000F11D877021E030E001C0220F8A95EAF7AE
:102A20008181822B818308952091000130910101E1
:102A3000F90132969FEF40E05191851751F09F3F89
:102A400019F4511101C0942F4F5F4E31A9F79F3FE8
:102A500009F40895290F311D97FD3A95F9018283F4
:102A60000895909112019923E9F09091210297FF26
:102A700019C0982F9695969596959F3111F1E091F2
:102A80000001F0910101E90FF11D282F277081E06D
:102A900090E001C0880F2A95EAF7809591818923FB
:102AA00081830895E0910001F09101019F01225E70
:102AB0003F4F9281891301C012823196E217F307CA
:102AC000C1F7089581E090E0E0910001F0910101EB
:102AD000E80FF91F1082019680329105A9F7089539
:102AE0009091EF01892B8093EF010895982F909595
:102AF0008091EF0189238093EF0108951092EF01F7
:102B000008959091EE01892B8093EE010895982FFE
:102B100090958091EE0189238093EE0108951092A3
:102B2000EE0108959091ED01892B8093ED010895B8
:102B3000982F90958091ED0189238093ED01089560
:102B40001092ED0108958093CC0108951092CC016C
:102B500008952091000130910101F9013196205E24
:102B60003F4F80E0919191118F5FE217F307D1F70A
:102B70000895E0910001F09101018091EF018083BF
:102B8000E0910001F091010180819091EE01892B8B
:102B90008083E0910001F091010180819091ED012D
:102BA000892B80839091CC01992361F0E091000101
:102BB000F09101018081892B80830E94A9158111E8
:102BC0001092CC0180910001909101010C94E309D5
:102BD0006DEE7EEF80E090E00E94CF2360E082E027
:102BE00090E00E94BD2360E083E090E00E94BD235E
:102BF00060E084E090E00E94BD2360E085E090E02A
:102C00000E94BD2360E086E090E00C94BD2380E04C
:102C100090E00E94B72321E08D3E9E4F09F020E016
:102C2000822F089582E090E00C94AF23682F82E019
:102C300090E00C94BD2383E090E00C94AF23682FC8
:102C400083E090E00C94BD2384E090E00C94AF23EB
:102C5000682F84E090E00C94BD2386E090E00C9413
:102C6000AF23682F86E090E00C94BD23809128026A
:102C7000843051F11092F10120E488E190E00FB628
:102C8000F894A895809360000FBE2093600080E0C8
:102C90000E94FA0580E00E94280683B7817F846045
:102CA00083BF83B7816083BF7894889583B78E7F15
:102CB00083BF0FB6F894A8958091600088618093D7
:102CC0006000109260000FBE089508950C94651680
:102CD000CF930E9466160E940D090E946516C0E0FF
:102CE0008C2F0E94C809892B31F4CF5FC430C1F703
:102CF00080E0CF91089581E0FCCF0E94D80E0E9421
:102D0000CE1A0E94D7090C9428061F920F920FB674
:102D10000F9211248F939F93AF93BF938091F101F2
:102D2000811113C080911D0290911E02A0911F027B
:102D3000B09120024196A11DB11D80931D02909378
:102D40001E02A0931F02B0932002BF91AF919F91EA
:102D50008F910F900FBE0F901F90189582E084BD49
:102D600093E095BD9AEF97BD80936E0008952FB7BD
:102D7000F89480911D0290911E02A0911F02B091C3
:102D800020022FBF0895CF92DF92EF92FF920F9310
:102D90001F932FB7F89440911D0250911E0260912D
:102DA0001F02709120022FBF6A017B01EE24FF24D5
:102DB0008C0120E030E0C016D106E206F30650F0A8
:102DC000481B590BCA011F910F91FF90EF90DF90A4
:102DD000CF90089541505109F3CF1F920F920FB633
:102DE0000F9211248F939F93AF93BF9380911D02F5
:102DF00090911E02A0911F02B09120020196A11D88
:102E0000B11D80931D0290931E02A0931F02B093E8
:102E10002002BF91AF919F918F910F900FBE0F90A5
:102E20001F9018950E94521FF8942FEF87EA91E6A1
:102E3000215080409040E1F700C0000087E090EB17
:102E4000DC018093310290933202A0933302B0935D
:102E500034029CE088E10FB6F894A8958093600056
:102E60000FBE90936000FFCFAF92BF92CF92DF92E0
:102E7000EF92FF920F931F93CF93C0E0CC24C394A3
:102E8000D12CE82EF12C8C2F0E94C8095C0100E0A7
:102E900010E0C601002E02C0880F991F0A94E2F7C5
:102EA0008A219B21892B99F40F5F1F4F0C3011054C
:102EB00081F7CF5FC43039F780E0CF911F910F9138
:102EC000FF90EF90DF90CF90BF90AF900895602F6C
:102ED0007C2F80E00E942B06E816F90629F781E096
:102EE000ECCFCF93C82F8CE20E943417882321F0B7
:102EF0008C2FCF910C94341780E0CF910895CF930D
:102F00000E940716811102C00E94E815C5E6C15053
:102F100009F0E9C089E20E947117811118C18AE2A3
:102F20000E94711781110E94E81585E00E947117B7
:102F300081110E9412170E9412168093F00187E0FF
:102F40000E947117882389F08BE10E9471178823F2
:102F500009F4D2C08091F00181FB992790F921E01A
:102F6000922790FB81F98093F0018091F0010E94FB
:102F700016160E94241690E090932202809321025C
:102F800080EE0E947117882341F080912102982FD2
:102F9000909590FB80F98093210289E30E9471173C
:102FA000882359F08091210281FB992790F921E033
:102FB000922790FB81F98093210282EE0E94711783
:102FC000882359F08091210282FB992790F921E012
:102FD000922790FB82F98093210286EE0E9471175E
:102FE000882359F08091210283FB992790F921E0F1
:102FF000922790FB83F98093210283EE0E94711740
:10300000882359F08091210284FB992790F921E0CF
:10301000922790FB84F98093210285E30E94711727
:10302000882359F08091210285FB992790F921E0AE
:10303000922790FB85F98093210281E30E9471170A
:10304000882359F08091210286FB992790F921E08D
:10305000922790FB86F98093210281E10E947117EB
:10306000882359F08091210287FB992790F921E06C
:10307000922790FB87F980932102809121020E9480
:10308000281687E20E947117C82F8EE10E947117DF
:103090008111C2608FE10E9471178111C46080E2CA
:1030A0000E9471178111C86081E20E94711781111D
:1030B000C06182E20E9471178111C06283E20E94A6
:1030C00071178111C06484E20E9471178823C9F1CD
:1030D000C0688C2F0E941F166C2F70E080E090E07B
:1030E000CF910C94C6120E940D098FE39CE90197C1
:1030F000F1F700C000000BCF8EE00E94711788230B
:1031000051F08091F00182FB992790F921E09227FC
:1031100090FB82F928CF80E10E9471179091F00115
:10312000882351F093FB882780F921E0822780FBD8
:1031300093F99093F00119CF892F809580FB90F936
:10314000F8CFC111C6CF0E941B16682FC6CFCF91F2
:1031500008958091F40180FF12C06091050185E01F
:10316000689FB001112475956795759567956038CE
:103170007105A8F56115710581F581E0089581FF5C
:1031800009C06091050185E0689FB0011124759523
:103190006795EDCF82FF07C06091050185E0689FCC
:1031A000B0011124E4CF9091F5019923A1F0609131
:1031B0000401961788F72091050185E0289F90016A
:1031C0001124929FA001939F500D112470E0CA0119
:1031D0000E948123CCCF65E070E0862F08958FE7B1
:1031E00008958091F40180FF0CC06091030170E0AC
:1031F00075956795759567956115710539F581E048
:10320000089581FF06C06091030170E07595679590
:10321000F3CF82FF08C06091030170E06038710550
:1032200058F38FE708958091F501882369F0609144
:103230000201861780F790910301899FC001112434
:1032400070E00E948123EACF61E070E0862F08954C
:10325000803F31F40E94A91881958093F801089568
:10326000813F19F40E94A918F8CF823F31F40E94DF
:10327000A91881958093F7010895833F19F40E945E
:10328000A918F8CF893F29F40E94F1188093F90119
:1032900008958A3F21F40E94F1188195F7CF8B3F62
:1032A00031F40E94F11881958093FA0108958C3FC2
:1032B00019F40E94F118F8CF843F31F48091F6019F
:1032C00081608093F6010895853F21F48091F60195
:1032D0008260F7CF863F21F48091F6018460F1CFC0
:1032E000873F21F48091F6018860EBCF883F21F47D
:1032F0008091F6018061E5CF8D3F31F48091F4013A
:1033000081608093F40108958E3F21F48091F4014F
:103310008260F7CF8F3FB9F78091F4018460F1CFDD
:10332000803FC1F48091F80187FD1092F8018091EF
:10333000F70181110EC08091F80181110AC08091BE
:10334000F901811106C08091FA01811102C0109229
:10335000F5010895813F29F48091F80118162CF3A6
:10336000E6CF9091F701823F29F497FFE0CF1092CA
:10337000F701DDCF833F19F41916CCF3D8CF893F7D
:1033800039F48091F901181694F61092F901CFCF13
:103390008A3F29F48091F90187FFC9CFF6CF8B3F8F
:1033A00039F48091FA0187FFC2CF1092FA01BFCFA2
:1033B0008C3F29F48091FA011816BCF3B8CF843FF2
:1033C00031F48091F6018E7F8093F601B0CF853F76
:1033D00021F48091F6018D7FF7CF863F21F4809113
:1033E000F6018B7FF1CF873F21F48091F601877F33
:1033F000EBCF883F21F48091F6018F7EE5CF8D3FA2
:1034000031F48091F4018E7F8093F40190CF8E3F50
:1034100021F48091F4018D7FF7CF8F3F09F087CFA2
:103420008091F4018B7FF0CF86EF91E00E94EE094E
:103430000E94B7169093F3018093F20108951F93B1
:10344000CF93DF938091F2019091F3010E94C31614
:10345000AC019091F5019923D1F02091060130E063
:103460004217530780F08091F701C091F801D09185
:10347000F9011091FA01811111C0C1117FC0D11160
:103480007DC011117BC0DF91CF911F9108952091D4
:1034900007018AE0289F90011124E2CF9F3F19F095
:1034A0009F5F9093F501181624F40E94A918809349
:1034B000F7018091F70187FF05C00E94A918819547
:1034C0008093F7011C1624F40E94A9188093F80138
:1034D0008091F80187FF05C00E94A918819580930B
:1034E000F8016091F701662331F1C091F801CC2316
:1034F00011F1062E000C770B880B990B0E94882285
:1035000023E333E343E35FE30E94EC220E94502273
:103510006093F7016C2FCC0F770B880B990B0E94EF
:10352000882223E333E343E35FE30E94EC220E941B
:1035300050226093F8011D1624F40E94F118809324
:10354000F9018091F90187FF05C00E94F11881956A
:103550008093F901111624F40E94F1188093FA0166
:103560008091FA0187FF05C00E94F1188195809330
:10357000FA01DF91CF911F910C94141A9F3F09F02B
:103580008FCFA0CFE6EFF1E085E0DF011D928A95B5
:10359000E9F71092F5011092F40108950E940716C0
:1035A000811102C00E94E8150E942D16809323020B
:1035B00080FF03C086950C94FA0580E0FCCF8091D3
:1035C0002302982F9695292F30E02330310534F4CB
:1035D0009F5F990F8170892B809323028091230232
:1035E0008160809323020E94311680912302869588
:1035F0000C94FA0590912302892F869591F08158B9
:10360000880F9170892B809323028E7F91E009F4BB
:1036100090E08091230290FB80F9809323020E9426
:1036200031168091230286950C94FA05809123022D
:10363000982F909590FB80F9809323020E94311679
:103640008091230280FF03C086950C94FA0580E0E8
:10365000FCCF90912302892F86958F5F8F77917091
:103660008430B8F4880F892B809323028091230241
:103670008E7F91E009F490E08091230290FB80F925
:10368000809323020E9431168091230286950C9428
:10369000FA0590932302EACF90912302292F2695D1
:1036A0008227880F9170982B909323029E7F21E0B0
:1036B00009F420E08091230220FB80F9809323020B
:1036C0000E9431168091230286950C94FA05809110
:1036D0001B020895CF93DF9300D01F92CDB7DEB7C2
:1036E0009C0180912802843019F593E099833B83F3
:1036F0002A839093E9008FEF9091E800815095FD27
:1037000006C095ED9A95F1F700008111F5CF8091F3
:10371000E80085FF0DC040E050E063E070E0CE01BE
:1037200001960E94C51D8091E8008E778093E80085
:103730000F900F900F90DF91CF910895CF93DF936B
:1037400000D01F92CDB7DEB720912802243031F58A
:1037500022E02983805891099B838A8383E08093A8
:10376000E9008FEF9091E800815095FD06C095ED3E
:103770009A95F1F700008111F5CF8091E80085FF5F
:103780000DC040E050E063E070E0CE0101960E9481
:10379000C51D8091E8008E778093E8000F900F9010
:1037A0000F90DF91CF9108959C0180912802843081
:1037B000F9F482E08093E9009FEF8091E800915056
:1037C00085FD06C085ED8A95F1F700009111F5CFD2
:1037D0008091E80085FF0CC040E050E065E070E0BB
:1037E000C9010E94C51D8091E8008E778093E80092
:1037F0000895CF93DF93EC0180912802843071F516
:1038000090911201992369F19091210297FF29C0AB
:103810008093E9008FEF9091E800815095FD06C0FC
:1038200095E19A95F1F700008111F5CF8091E800BC
:1038300085FF14C040E050E060E270E0CE010E94DD
:10384000C51D8091E8008E778093E80080E2FE013C
:10385000ABEFB1E001900D928A95E1F7DF91CF9146
:10386000089581E08093E9008FEF9091E800815006
:1038700095FD06C095ED9A95F1F700008111F5CF01
:103880008091E80085FFEACF40E050E068E070E01A
:10389000D5CF80912702811109C00E94521F0E943A
:1038A000AF1F8091E20084608093E200089510923F
:1038B00027020895089508950C947D1642E061EC66
:1038C00081E00E94CF1E42E061EC82E00E94CF1EA8
:1038D00042E061EC83E00E94CF1E42E261EC84E0B2
:1038E0000C94CF1E80912A02833009F455C030F425
:1038F000813071F1823009F491C008958A3009F461
:103900007DC08B3009F463C0893009F044C08091D8
:103910002902813209F03FC080912D0290912E0240
:10392000009711F00397B9F58091E800877F8093A5
:10393000E8008091E80082FF2AC08091F100809326
:103940001B028091E8008B778093E8000C94041FA1
:1039500080912902813AF9F48091E800877F809371
:10396000E80080912D0290912E02892B61F460E293
:103970008BEF91E070E00E94141E8091E8008B773D
:103980008093E800089560E080E090E0F3CF8091BC
:1039900028028111CECF089580912902813AD9F76A
:1039A00080912D0290912E02892BA9F78091E80039
:1039B000877F8093E8008091E80080FFFCCF8091B2
:1039C00012018093F1008091E8008E77BDCF809145
:1039D0002902813201F780912D0290912E02892BCC
:1039E000D1F68091E800877F8093E8000E94041F51
:1039F00080912B02809312010C94D80E80912902A1
:103A0000813249F68091E800877F8093E8000E9428
:103A1000041F80912C0280931C020895809129023A
:103A2000813A09F0B8CF8091E800877F8093E80061
:103A30008091E80080FFFCCF80911C02C2CF84B748
:103A4000877F84BF0FB6F894A89580916000886145
:103A500080936000109260000FBE80E88093610048
:103A6000109261000E94260A0E94521F0E94AF1FFE
:103A70008091E20084608093E20078940E94342276
:103A80000E94280A88E091E00E94D20980912802D1
:103A9000853019F00E94300AF9CF0E9436168091C5
:103AA0002602882399F30E946816882379F30E94DE
:103AB000AF1DECCF292F33272330310579F158F48E
:103AC00021303105F1F02230310519F180E090E02C
:103AD00020E030E01AC02132310599F1223231055F
:103AE000A9F7643098F770E0FB01EE0FFF1FE95D66
:103AF000FE4F208131816D5D7E4FFB01808190E022
:103B000004C082E190E024EA37E0FA0131832083A7
:103B100008958DE690E027E337E0F7CF99278130CD
:103B2000910561F028F0029789F6E7E0F7E002C01E
:103B3000E3E3F7E0849190E09F01E7CFEBE1F7E06A
:103B4000F9CF643008F0C2CFE62FF0E0EE0FFF1F90
:103B5000E15DFE4F2081318189E090E0D6CF80E1A8
:103B600089BD82E189BD09B400FEFDCF8091D800F6
:103B70008F7D8093D8008091E00082608093E00088
:103B80008091E00081FDFCCF0895AF92BF92DF925B
:103B9000EF92FF920F931F93CF93DF93EC018B0172
:103BA0007A010E94231FD82E811124C0E114F10450
:103BB00039F0F70180819181081B190BC80FD91FBB
:103BC000A12CB12C01151105A9F08091E80085FD0B
:103BD00022C08091E8008E778093E800E114F10420
:103BE000A1F0F70180819181A80EB91EB182A08257
:103BF00085E0D82E8D2DDF91CF911F910F91FF90F1
:103C0000EF90DF90BF90AF9008950E94231F88230C
:103C1000C9F2D82EEFCF89918093F100015011099C
:103C2000FFEFAF1ABF0ACECF20912F0230913002A2
:103C300026173707A8F06115710529F42091E800CF
:103C40002E772093E800FC0120E06115710551F406
:103C5000211108C08091E80082FF33C080E0089500
:103C6000B901F1CF809128028823B9F18530B9F1EB
:103C70008091E80083FD2FC08091E80082FDEACFAB
:103C80008091E80080FFE1CF2091F3008091F20065
:103C900090E0922B6115710519F08830910550F074
:103CA00021E0089709F020E08091E8008E7780936A
:103CB000E800CBCF21912093F1006150710901966A
:103CC000E9CF80912802882341F0853041F080912E
:103CD000E80083FFBFCF81E0089582E0089583E08C
:103CE000089520912F023091300226173707A8F04F
:103CF0006115710529F42091E8002E772093E800E2
:103D0000FC0120E06115710551F4211108C080917A
:103D1000E80082FF34C080E00895B901F1CF8091BE
:103D200028028823C1F18530C1F18091E80083FD2C
:103D300030C08091E80082FDEACF8091E80080FFEA
:103D4000E1CF2091F3008091F20090E0922B611579
:103D5000710519F08830910550F021E0089709F0BD
:103D600020E08091E8008E778093E800CBCF24910B
:103D70002093F1003196615071090196E8CF80914E
:103D80002802882341F0853041F08091E80083FFCC
:103D9000BECF81E0089582E0089583E00895982FD2
:103DA000973028F08F708093E90081E00895909318
:103DB000E900981751F07091EC002091ED005091BE
:103DC000F00021FD06C09F5FEBCF242F762F50E03F
:103DD000F8CF3091EB003E7F3093EB003091ED0057
:103DE0003D7F3093ED003091EB0031603093EB007C
:103DF0007093EC002093ED005093F0002091EE00C2
:103E000027FDE1CF80E008958091290287FF13C04C
:103E10008091E80082FF06C08091E8008B77809354
:103E2000E80004C0809128028111F2CF08958091AA
:103E300028028823D9F38091E80080FFF8CF809191
:103E4000E8008E77ECCF2091E4003091E50085E624
:103E50009091EC0090FD20C09091E80092FD20C070
:103E600090912802992391F0953091F09091EB0078
:103E700095FD10C04091E4005091E50042175307B2
:103E800039F381509A0121F784E0089582E0089582
:103E900083E0089581E008959091E80090FFE0CFDD
:103EA00080E008950E94C01F0E94C81FE0EEF0E06D
:103EB000808181608083E8EDF0E080818F7780836E
:103EC00019BCA7EDB0E08C918E7F8C9380818F7EA2
:103ED00080831092270208950F931F93CF93DF934F
:103EE0000E94C01F0E94C81FC8EDD0E088818F7754
:103EF000888388818068888388818F7D888319BCC6
:103F0000109228021092240210922602109225028A
:103F100000EE10E0F80180818B7F808388818160D2
:103F2000888342E060E080E00E94CF1EE1EEF0E096
:103F300080818E7F8083E2EEF0E0808181608083EB
:103F4000808188608083F80180818E7F8083888172
:103F500080618883DF91CF911F910F910895E8EDE3
:103F6000F0E080818F7E8083E7EDF0E080818160EA
:103F7000808384E082BF81E0809327020C946C1FD1
:103F8000E8EDF0E080818E7F80831092E20008955A
:103F90001092DA001092E10008951F920F920FB66E
:103FA0000F9211242F933F934F935F936F937F93BF
:103FB0008F939F93AF93BF93EF93FF938091E10013
:103FC00082FF0BC08091E20082FF07C08091E10078
:103FD0008B7F8093E1000E9433228091DA0080FF82
:103FE00019C08091D80080FF15C08091DA008E7FC3
:103FF0008093DA008091D90080FF94C080E189BD70
:1040000082E189BD09B400FEFDCF81E080932802E2
:104010000E94491C8091E10080FF19C08091E2005C
:1040200080FF15C08091E2008E7F8093E200809136
:10403000E20080618093E2008091D80080628093EA
:10404000D80019BC85E0809328020E945B1C8091F7
:10405000E10084FF29C08091E20084FF25C080E157
:1040600089BD82E189BD09B400FEFDCF8091D800F1
:104070008F7D8093D8008091E1008F7E8093E10056
:104080008091E2008F7E8093E2008091E200816067
:104090008093E20080912402882309F449C084E0DF
:1040A000809328020E945C1C8091E10083FF29C05C
:1040B0008091E20083FF25C08091E100877F80939B
:1040C000E10082E080932802109224028091E100B6
:1040D0008E7F8093E1008091E2008E7F8093E200EA
:1040E0008091E20080618093E20042E060E080E045
:1040F0000E94CF1E8091F00088608093F0000E94A3
:104100005A1CFF91EF91BF91AF919F918F917F9139
:104110006F915F914F913F912F910F900FBE0F9034
:104120001F90189519BC109228020E94571C72CF3C
:104130008091E30087FD02C081E0B2CF83E0B0CF81
:104140001F920F920FB60F9211242F933F934F930C
:104150005F936F937F938F939F93AF93BF93CF930F
:10416000EF93FF93C091E900CF708091EC00109223
:10417000E9008091F000877F8093F00078940E949E
:10418000DC201092E9008091F00088608093F000BC
:10419000C093E900FF91EF91CF91BF91AF919F91B3
:1041A0008F917F916F915F914F913F912F910F90E0
:1041B0000FBE0F901F9018951F93CF93DF93CDB72D
:1041C000DEB7AA970FB6F894DEBF0FBECDBFE9E207
:1041D000F2E08091F100819322E0E133F207C9F728
:1041E0000E94721C8091E80083FF44C080912902E4
:1041F00090912A02492F50E04A30510508F03AC008
:10420000FA01EB5FFE4D0C9495230F2133213A21E7
:1042100033213A218E21B1213A21062213228038FE
:1042200079F0823839F580912D028F708093E90002
:104230008091EB0085FB882780F91092E90006C089
:104240008091250290912602911182609091E80060
:10425000977F9093E8008093F1001092F100809195
:10426000E8008E772DC0282F2D7F21F48823D1F0F0
:10427000823059F18091E80083FF0AC08091E80004
:10428000877F8093E8008091EB0080628093EB0051
:10429000AA960FB6F894DEBF0FBECDBFDF91CF91C7
:1042A0001F91089580912B02813021F7933009F0FE
:1042B00080E0809326021092E9008091E800877FD9
:1042C0008093E8000E94041FD5CF80912B028111BA
:1042D000F2CF80912D028F7069F28093E9002091D6
:1042E000EB0020FFE8CF933031F48091EB00806247
:1042F0008093EB00E0CF9091EB0090619093EB0006
:1043000021E030E001C0220F8A95EAF72093EA000D
:104310001092EA008091EB008860EACF8111AACF69
:1043200010912B021F778091E3008078812B80937E
:10433000E3008091E800877F8093E8000E94041FDB
:104340008091E80080FFFCCF8091E300806880933B
:10435000E300111104C082E0809328028BCF83E038
:10436000FBCF8058823008F085CF80912B0290914E
:104370002C028C3D23E09207A1F583E08A838AE238
:1043800089834FB7F894DE01139620E03EE051E2B6
:10439000E32FF0E050935700E49120FF03C0E29533
:1043A000EF703F5FEF708E2F90E0EA30C0F0C7965D
:1043B0008D939D932F5F243159F74FBF8091E80073
:1043C000877F8093E8006AE270E0CE0101960E9448
:1043D000141E8091E8008B778093E8004BCFC09645
:1043E000E7CFAE014F5F5F4F60912D020E945A1DD3
:1043F000BC01892B09F43ECF9091E800977F909300
:10440000E80089819A810E94711EE3CF803809F00B
:1044100031CF8091E800877F8093E800809124026B
:104420008093F1001CCF811125CF90912B02923007
:1044300008F020CF8091E800877F8093E800909378
:1044400024020E94041F80912402882311F084E03A
:1044500005C08091E30087FDFACF81E080932802B8
:104460000E945E1C07CF0895CF9380912802882375
:1044700099F0C091E900CF708091EC0080FD0EC0F2
:1044800080E0C82B1092E9008091E80083FD0E9433
:10449000DC20CF70C093E900CF91089580E8F1CF80
:1044A0000E9457226894B1110C94E62208950E944C
:1044B000CB2288F09F5798F0B92F9927B751B0F0C9
:1044C000E1F0660F771F881F991F1AF0BA95C9F798
:1044D00014C0B13091F00E94E522B1E008950C942F
:1044E000E522672F782F8827B85F39F0B93FCCF3E2
:1044F000869577956795B395D9F73EF49095809515
:10450000709561957F4F8F4F9F4F0895E89409C034
:1045100097FB3EF490958095709561957F4F8F4FF6
:104520009F4F9923A9F0F92F96E9BB279395F6950C
:10453000879577956795B795F111F8CFFAF4BB0F8A
:1045400011F460FF1BC06F5F7F4F8F4F9F4F16C0EE
:10455000882311F096E911C0772321F09EE8872F78
:10456000762F05C0662371F096E8862F70E060E034
:104570002AF09A95660F771F881FDAF7880F9695AD
:10458000879597F9089557FD9058440F551F59F096
:104590005F3F71F04795880F97FB991F61F09F3F30
:1045A00079F087950895121613061406551FF2CF59
:1045B0004695F1DF08C0161617061806991FF1CFA9
:1045C00086957105610508940895E894BB276627D0
:1045D0007727CB0197F908950E94FF220C9470234E
:1045E0000E94622338F00E94692320F0952311F085
:1045F0000C9459230C945F2311240C94E6220E94FE
:10460000C32270F3959FC1F3950F50E0551F629F31
:10461000F001729FBB27F00DB11D639FAA27F00D1B
:10462000B11DAA1F649F6627B00DA11D661F829F42
:104630002227B00DA11D621F739FB00DA11D621F27
:10464000839FA00D611D221F749F3327A00D611D44
:10465000231F849F600D211D822F762F6A2F112426
:104660009F5750409AF0F1F088234AF0EE0FFF1F59
:10467000BB1F661F771F881F91505040A9F79E3FB0
:10468000510580F00C9459230C94E6225F3FE4F32B
:10469000983ED4F3869577956795B795F795E79506
:1046A0009F5FC1F7FE2B880F911D9695879597F90F
:1046B000089597F99F6780E870E060E008959FEFA4
:1046C00080EC089500240A941616170618060906A9
:1046D000089500240A941216130614060506089578
:1046E000092E0394000C11F4882352F0BB0F40F400
:1046F000BF2B11F460FF04C06F5F7F4F8F4F9F4F40
:10470000089597FB072E16F4009407D077FD09D083
:104710000E949B2307FC05D03EF4909581959F4F06
:104720000895709561957F4F0895EE0FFF1F0590D6
:10473000F491E02D0994AA1BBB1B51E107C0AA1FED
:10474000BB1FA617B70710F0A61BB70B881F991F32
:104750005A95A9F780959095BC01CD010895F999D6
:10476000FECF92BD81BDF89A992780B50895A8E142
:10477000B0E042E050E00C94D723262FF999FECF09
:1047800092BD81BDF89A019700B4021639F01FBAA4
:1047900020BD0FB6F894FA9AF99A0FBE08950196C3
:1047A000272F0E94BE230C94BD23DC01CB01FC010A
:1047B000F999FECF06C0F2BDE1BDF89A319600B47A
:0E47C0000D9241505040B8F70895F894FFCF85
:1047CE00CD012808140A321E671BF91BD41B9E1B31
:1047DE006A1B01F1F03067F4F5F6F7949634979072
:1047EE00953536404D363972082508EF07B607491C
:0847FE000762077B0794070026
:00000001FF
